:100000000C9434000C943E000C943E000C943E0082
:100010000C943E000C943E000C943E000C943E0068
:100020000C943E000C943E000C943E000C943E0058
:100030000C943E000C943E000C943E000C943E0048
:100040000C943E000C943E000C943E000C943E0038
:100050000C943E000C943E000C943E000C943E0028
:100060000C943E000C943E0011241FBECFEFD8E04C
:10007000DEBFCDBF0E9440000C9468000C940000CD
:100080008AB18AB9259A60E289B1482F4470982FC5
:10009000987084FD14C051E080E0911150E0252F4C
:1000A000382F992399F0232B11F041110FC015B867
:1000B00089B1482F4470982F987084FFECCF992312
:1000C00019F021E030E0EFCF4111F1CF65B9DCCF7D
:0400D000F894FFCFD2
:00000001FF
